{
    "_format": "hh-sol-artifact-1",
    "contractName": "Metadrobe",
    "sourceName": "contracts/IERC721BigBrain.sol",
    "abi": [
        {
            "inputs": [],
            "stateMutability": "nonpayable",
            "type": "constructor"
        },
        {
            "anonymous": false,
            "inputs": [
                {
                    "indexed": true,
                    "internalType": "address",
                    "name": "owner",
                    "type": "address"
                },
                {
                    "indexed": true,
                    "internalType": "address",
                    "name": "approved",
                    "type": "address"
                },
                {
                    "indexed": true,
                    "internalType": "uint256",
                    "name": "tokenId",
                    "type": "uint256"
                }
            ],
            "name": "Approval",
            "type": "event"
        },
        {
            "anonymous": false,
            "inputs": [
                {
                    "indexed": true,
                    "internalType": "address",
                    "name": "owner",
                    "type": "address"
                },
                {
                    "indexed": true,
                    "internalType": "address",
                    "name": "operator",
                    "type": "address"
                },
                {
                    "indexed": false,
                    "internalType": "bool",
                    "name": "approved",
                    "type": "bool"
                }
            ],
            "name": "ApprovalForAll",
            "type": "event"
        },
        {
            "anonymous": false,
            "inputs": [
                {
                    "indexed": true,
                    "internalType": "address",
                    "name": "previousOwner",
                    "type": "address"
                },
                {
                    "indexed": true,
                    "internalType": "address",
                    "name": "newOwner",
                    "type": "address"
                }
            ],
            "name": "OwnershipTransferred",
            "type": "event"
        },
        {
            "anonymous": false,
            "inputs": [
                {
                    "indexed": true,
                    "internalType": "address",
                    "name": "from",
                    "type": "address"
                },
                {
                    "indexed": true,
                    "internalType": "address",
                    "name": "to",
                    "type": "address"
                },
                {
                    "indexed": true,
                    "internalType": "uint256",
                    "name": "tokenId",
                    "type": "uint256"
                }
            ],
            "name": "Transfer",
            "type": "event"
        },
        {
            "inputs": [
                {
                    "internalType": "address",
                    "name": "to",
                    "type": "address"
                },
                {
                    "internalType": "uint256",
                    "name": "tokenId",
                    "type": "uint256"
                }
            ],
            "name": "approve",
            "outputs": [],
            "stateMutability": "nonpayable",
            "type": "function"
        },
        {
            "inputs": [
                {
                    "internalType": "address",
                    "name": "owner",
                    "type": "address"
                }
            ],
            "name": "balanceOf",
            "outputs": [
                {
                    "internalType": "uint256",
                    "name": "",
                    "type": "uint256"
                }
            ],
            "stateMutability": "view",
            "type": "function"
        },
        {
            "inputs": [
                {
                    "internalType": "uint256",
                    "name": "tokenId",
                    "type": "uint256"
                }
            ],
            "name": "getApproved",
            "outputs": [
                {
                    "internalType": "address",
                    "name": "",
                    "type": "address"
                }
            ],
            "stateMutability": "view",
            "type": "function"
        },
        {
            "inputs": [
                {
                    "internalType": "address",
                    "name": "owner",
                    "type": "address"
                },
                {
                    "internalType": "address",
                    "name": "operator",
                    "type": "address"
                }
            ],
            "name": "isApprovedForAll",
            "outputs": [
                {
                    "internalType": "bool",
                    "name": "",
                    "type": "bool"
                }
            ],
            "stateMutability": "view",
            "type": "function"
        },
        {
            "inputs": [],
            "name": "name",
            "outputs": [
                {
                    "internalType": "string",
                    "name": "",
                    "type": "string"
                }
            ],
            "stateMutability": "view",
            "type": "function"
        },
        {
            "inputs": [],
            "name": "owner",
            "outputs": [
                {
                    "internalType": "address",
                    "name": "",
                    "type": "address"
                }
            ],
            "stateMutability": "view",
            "type": "function"
        },
        {
            "inputs": [
                {
                    "internalType": "uint256",
                    "name": "tokenId",
                    "type": "uint256"
                }
            ],
            "name": "ownerOf",
            "outputs": [
                {
                    "internalType": "address",
                    "name": "",
                    "type": "address"
                }
            ],
            "stateMutability": "view",
            "type": "function"
        },
        {
            "inputs": [],
            "name": "renounceOwnership",
            "outputs": [],
            "stateMutability": "nonpayable",
            "type": "function"
        },
        {
            "inputs": [
                {
                    "internalType": "address",
                    "name": "to",
                    "type": "address"
                }
            ],
            "name": "safeMint",
            "outputs": [],
            "stateMutability": "nonpayable",
            "type": "function"
        },
        {
            "inputs": [
                {
                    "internalType": "address",
                    "name": "from",
                    "type": "address"
                },
                {
                    "internalType": "address",
                    "name": "to",
                    "type": "address"
                },
                {
                    "internalType": "uint256",
                    "name": "tokenId",
                    "type": "uint256"
                }
            ],
            "name": "safeTransferFrom",
            "outputs": [],
            "stateMutability": "nonpayable",
            "type": "function"
        },
        {
            "inputs": [
                {
                    "internalType": "address",
                    "name": "from",
                    "type": "address"
                },
                {
                    "internalType": "address",
                    "name": "to",
                    "type": "address"
                },
                {
                    "internalType": "uint256",
                    "name": "tokenId",
                    "type": "uint256"
                },
                {
                    "internalType": "bytes",
                    "name": "data",
                    "type": "bytes"
                }
            ],
            "name": "safeTransferFrom",
            "outputs": [],
            "stateMutability": "nonpayable",
            "type": "function"
        },
        {
            "inputs": [
                {
                    "internalType": "address",
                    "name": "operator",
                    "type": "address"
                },
                {
                    "internalType": "bool",
                    "name": "approved",
                    "type": "bool"
                }
            ],
            "name": "setApprovalForAll",
            "outputs": [],
            "stateMutability": "nonpayable",
            "type": "function"
        },
        {
            "inputs": [
                {
                    "internalType": "bytes4",
                    "name": "interfaceId",
                    "type": "bytes4"
                }
            ],
            "name": "supportsInterface",
            "outputs": [
                {
                    "internalType": "bool",
                    "name": "",
                    "type": "bool"
                }
            ],
            "stateMutability": "view",
            "type": "function"
        },
        {
            "inputs": [],
            "name": "symbol",
            "outputs": [
                {
                    "internalType": "string",
                    "name": "",
                    "type": "string"
                }
            ],
            "stateMutability": "view",
            "type": "function"
        },
        {
            "inputs": [
                {
                    "internalType": "uint256",
                    "name": "index",
                    "type": "uint256"
                }
            ],
            "name": "tokenByIndex",
            "outputs": [
                {
                    "internalType": "uint256",
                    "name": "",
                    "type": "uint256"
                }
            ],
            "stateMutability": "view",
            "type": "function"
        },
        {
            "inputs": [
                {
                    "internalType": "address",
                    "name": "owner",
                    "type": "address"
                },
                {
                    "internalType": "uint256",
                    "name": "index",
                    "type": "uint256"
                }
            ],
            "name": "tokenOfOwnerByIndex",
            "outputs": [
                {
                    "internalType": "uint256",
                    "name": "",
                    "type": "uint256"
                }
            ],
            "stateMutability": "view",
            "type": "function"
        },
        {
            "inputs": [
                {
                    "internalType": "uint256",
                    "name": "tokenId",
                    "type": "uint256"
                }
            ],
            "name": "tokenURI",
            "outputs": [
                {
                    "internalType": "string",
                    "name": "",
                    "type": "string"
                }
            ],
            "stateMutability": "view",
            "type": "function"
        },
        {
            "inputs": [],
            "name": "totalSupply",
            "outputs": [
                {
                    "internalType": "uint256",
                    "name": "",
                    "type": "uint256"
                }
            ],
            "stateMutability": "view",
            "type": "function"
        },
        {
            "inputs": [
                {
                    "internalType": "address",
                    "name": "from",
                    "type": "address"
                },
                {
                    "internalType": "address",
                    "name": "to",
                    "type": "address"
                },
                {
                    "internalType": "uint256",
                    "name": "tokenId",
                    "type": "uint256"
                }
            ],
            "name": "transferFrom",
            "outputs": [],
            "stateMutability": "nonpayable",
            "type": "function"
        },
        {
            "inputs": [
                {
                    "internalType": "address",
                    "name": "newOwner",
                    "type": "address"
                }
            ],
            "name": "transferOwnership",
            "outputs": [],
            "stateMutability": "nonpayable",
            "type": "function"
        }
    ],
    "bytecode": "0x60806040523480156200001157600080fd5b506040518060400160405280600981526020017f4d65746164726f626500000000000000000000000000000000000000000000008152506040518060400160405280600981526020017f4d65746144726f6265000000000000000000000000000000000000000000000081525081600090816200008f919062000412565b508060019081620000a1919062000412565b505050620000c4620000b8620000ca60201b60201c565b620000d260201b60201c565b620004f9565b600033905090565b6000600a60009054906101000a900473ffffffffffffffffffffffffffffffffffffffff16905081600a60006101000a81548173ffffffffffffffffffffffffffffffffffffffff021916908373ffffffffffffffffffffffffffffffffffffffff1602179055508173ffffffffffffffffffffffffffffffffffffffff168173ffffffffffffffffffffffffffffffffffffffff167f8be0079c531659141344cd1fd0a4f28419497f9722a3daafe3b4186f6b6457e060405160405180910390a35050565b600081519050919050565b7f4e487b7100000000000000000000000000000000000000000000000000000000600052604160045260246000fd5b7f4e487b7100000000000000000000000000000000000000000000000000000000600052602260045260246000fd5b600060028204905060018216806200021a57607f821691505b60208210810362000230576200022f620001d2565b5b50919050565b60008190508160005260206000209050919050565b60006020601f8301049050919050565b600082821b905092915050565b6000600883026200029a7fffffffffffffffffffffffffffffffffffffffffffffffffffffffffffffffff826200025b565b620002a686836200025b565b95508019841693508086168417925050509392505050565b6000819050919050565b6000819050919050565b6000620002f3620002ed620002e784620002be565b620002c8565b620002be565b9050919050565b6000819050919050565b6200030f83620002d2565b620003276200031e82620002fa565b84845462000268565b825550505050565b600090565b6200033e6200032f565b6200034b81848462000304565b505050565b5b8181101562000373576200036760008262000334565b60018101905062000351565b5050565b601f821115620003c2576200038c8162000236565b62000397846200024b565b81016020851015620003a7578190505b620003bf620003b6856200024b565b83018262000350565b50505b505050565b600082821c905092915050565b6000620003e760001984600802620003c7565b1980831691505092915050565b6000620004028383620003d4565b9150826002028217905092915050565b6200041d8262000198565b67ffffffffffffffff811115620004395762000438620001a3565b5b62000445825462000201565b6200045282828562000377565b600060209050601f8311600181146200048a576000841562000475578287015190505b620004818582620003f4565b865550620004f1565b601f1984166200049a8662000236565b60005b82811015620004c4578489015182556001820191506020850194506020810190506200049d565b86831015620004e45784890151620004e0601f891682620003d4565b8355505b6001600288020188555050505b505050505050565b61330e80620005096000396000f3fe608060405234801561001057600080fd5b506004361061012c5760003560e01c80636352211e116100ad578063a22cb46511610071578063a22cb46514610343578063b88d4fde1461035f578063c87b56dd1461037b578063e985e9c5146103ab578063f2fde38b146103db5761012c565b80636352211e1461029d57806370a08231146102cd578063715018a6146102fd5780638da5cb5b1461030757806395d89b41146103255761012c565b806323b872dd116100f457806323b872dd146101e95780632f745c591461020557806340d097c31461023557806342842e0e146102515780634f6ccce71461026d5761012c565b806301ffc9a71461013157806306fdde0314610161578063081812fc1461017f578063095ea7b3146101af57806318160ddd146101cb575b600080fd5b61014b60048036038101906101469190612261565b6103f7565b60405161015891906122a9565b60405180910390f35b610169610409565b6040516101769190612354565b60405180910390f35b610199600480360381019061019491906123ac565b61049b565b6040516101a6919061241a565b60405180910390f35b6101c960048036038101906101c49190612461565b6104e1565b005b6101d36105f8565b6040516101e091906124b0565b60405180910390f35b61020360048036038101906101fe91906124cb565b610605565b005b61021f600480360381019061021a9190612461565b610665565b60405161022c91906124b0565b60405180910390f35b61024f600480360381019061024a919061251e565b61070a565b005b61026b600480360381019061026691906124cb565b610738565b005b610287600480360381019061028291906123ac565b610758565b60405161029491906124b0565b60405180910390f35b6102b760048036038101906102b291906123ac565b6107c9565b6040516102c4919061241a565b60405180910390f35b6102e760048036038101906102e2919061251e565b61084f565b6040516102f491906124b0565b60405180910390f35b610305610906565b005b61030f61091a565b60405161031c919061241a565b60405180910390f35b61032d610944565b60405161033a9190612354565b60405180910390f35b61035d60048036038101906103589190612577565b6109d6565b005b610379600480360381019061037491906126ec565b6109ec565b005b610395600480360381019061039091906123ac565b610a4e565b6040516103a29190612354565b60405180910390f35b6103c560048036038101906103c0919061276f565b610ab6565b6040516103d291906122a9565b60405180910390f35b6103f560048036038101906103f0919061251e565b610b4a565b005b600061040282610bcd565b9050919050565b606060008054610418906127de565b80601f0160208091040260200160405190810160405280929190818152602001828054610444906127de565b80156104915780601f1061046657610100808354040283529160200191610491565b820191906000526020600020905b81548152906001019060200180831161047457829003601f168201915b5050505050905090565b60006104a682610c47565b6004600083815260200190815260200160002060009054906101000a900473ffffffffffffffffffffffffffffffffffffffff169050919050565b60006104ec826107c9565b90508073ffffffffffffffffffffffffffffffffffffffff168373ffffffffffffffffffffffffffffffffffffffff160361055c576040517f08c379a000000000000000000000000000000000000000000000000000000000815260040161055390612881565b60405180910390fd5b8073ffffffffffffffffffffffffffffffffffffffff1661057b610c92565b73ffffffffffffffffffffffffffffffffffffffff1614806105aa57506105a9816105a4610c92565b610ab6565b5b6105e9576040517f08c379a00000000000000000000000000000000000000000000000000000000081526004016105e090612913565b60405180910390fd5b6105f38383610c9a565b505050565b6000600880549050905090565b610616610610610c92565b82610d53565b610655576040517f08c379a000000000000000000000000000000000000000000000000000000000815260040161064c906129a5565b60405180910390fd5b610660838383610de8565b505050565b60006106708361084f565b82106106b1576040517f08c379a00000000000000000000000000000000000000000000000000000000081526004016106a890612a37565b60405180910390fd5b600660008473ffffffffffffffffffffffffffffffffffffffff1673ffffffffffffffffffffffffffffffffffffffff168152602001908152602001600020600083815260200190815260200160002054905092915050565b6107126110e1565b600061071e600b61115f565b905061072a600b61116d565b6107348282611183565b5050565b610753838383604051806020016040528060008152506109ec565b505050565b60006107626105f8565b82106107a3576040517f08c379a000000000000000000000000000000000000000000000000000000000815260040161079a90612ac9565b60405180910390fd5b600882815481106107b7576107b6612ae9565b5b90600052602060002001549050919050565b6000806107d5836111a1565b9050600073ffffffffffffffffffffffffffffffffffffffff168173ffffffffffffffffffffffffffffffffffffffff1603610846576040517f08c379a000000000000000000000000000000000000000000000000000000000815260040161083d90612b64565b60405180910390fd5b80915050919050565b60008073ffffffffffffffffffffffffffffffffffffffff168273ffffffffffffffffffffffffffffffffffffffff16036108bf576040517f08c379a00000000000000000000000000000000000000000000000000000000081526004016108b690612bf6565b60405180910390fd5b600360008373ffffffffffffffffffffffffffffffffffffffff1673ffffffffffffffffffffffffffffffffffffffff168152602001908152602001600020549050919050565b61090e6110e1565b61091860006111de565b565b6000600a60009054906101000a900473ffffffffffffffffffffffffffffffffffffffff16905090565b606060018054610953906127de565b80601f016020809104026020016040519081016040528092919081815260200182805461097f906127de565b80156109cc5780601f106109a1576101008083540402835291602001916109cc565b820191906000526020600020905b8154815290600101906020018083116109af57829003601f168201915b5050505050905090565b6109e86109e1610c92565b83836112a4565b5050565b6109fd6109f7610c92565b83610d53565b610a3c576040517f08c379a0000000000000000000000000000000000000000000000000000000008152600401610a33906129a5565b60405180910390fd5b610a4884848484611410565b50505050565b6060610a5982610c47565b6000610a6361146c565b90506000815111610a835760405180602001604052806000815250610aae565b80610a8d84611483565b604051602001610a9e929190612c52565b6040516020818303038152906040525b915050919050565b6000600560008473ffffffffffffffffffffffffffffffffffffffff1673ffffffffffffffffffffffffffffffffffffffff16815260200190815260200160002060008373ffffffffffffffffffffffffffffffffffffffff1673ffffffffffffffffffffffffffffffffffffffff16815260200190815260200160002060009054906101000a900460ff16905092915050565b610b526110e1565b600073ffffffffffffffffffffffffffffffffffffffff168173ffffffffffffffffffffffffffffffffffffffff1603610bc1576040517f08c379a0000000000000000000000000000000000000000000000000000000008152600401610bb890612ce8565b60405180910390fd5b610bca816111de565b50565b60007f780e9d63000000000000000000000000000000000000000000000000000000007bffffffffffffffffffffffffffffffffffffffffffffffffffffffff1916827bffffffffffffffffffffffffffffffffffffffffffffffffffffffff19161480610c405750610c3f82611551565b5b9050919050565b610c5081611633565b610c8f576040517f08c379a0000000000000000000000000000000000000000000000000000000008152600401610c8690612b64565b60405180910390fd5b50565b600033905090565b816004600083815260200190815260200160002060006101000a81548173ffffffffffffffffffffffffffffffffffffffff021916908373ffffffffffffffffffffffffffffffffffffffff160217905550808273ffffffffffffffffffffffffffffffffffffffff16610d0d836107c9565b73ffffffffffffffffffffffffffffffffffffffff167f8c5be1e5ebec7d5bd14f71427d1e84f3dd0314c0f7b2291e5b200ac8c7c3b92560405160405180910390a45050565b600080610d5f836107c9565b90508073ffffffffffffffffffffffffffffffffffffffff168473ffffffffffffffffffffffffffffffffffffffff161480610da15750610da08185610ab6565b5b80610ddf57508373ffffffffffffffffffffffffffffffffffffffff16610dc78461049b565b73ffffffffffffffffffffffffffffffffffffffff16145b91505092915050565b8273ffffffffffffffffffffffffffffffffffffffff16610e08826107c9565b73ffffffffffffffffffffffffffffffffffffffff1614610e5e576040517f08c379a0000000000000000000000000000000000000000000000000000000008152600401610e5590612d7a565b60405180910390fd5b600073ffffffffffffffffffffffffffffffffffffffff168273ffffffffffffffffffffffffffffffffffffffff1603610ecd576040517f08c379a0000000000000000000000000000000000000000000000000000000008152600401610ec490612e0c565b60405180910390fd5b610eda8383836001611674565b8273ffffffffffffffffffffffffffffffffffffffff16610efa826107c9565b73ffffffffffffffffffffffffffffffffffffffff1614610f50576040517f08c379a0000000000000000000000000000000000000000000000000000000008152600401610f4790612d7a565b60405180910390fd5b6004600082815260200190815260200160002060006101000a81549073ffffffffffffffffffffffffffffffffffffffff02191690556001600360008573ffffffffffffffffffffffffffffffffffffffff1673ffffffffffffffffffffffffffffffffffffffff168152602001908152602001600020600082825403925050819055506001600360008473ffffffffffffffffffffffffffffffffffffffff1673ffffffffffffffffffffffffffffffffffffffff16815260200190815260200160002060008282540192505081905550816002600083815260200190815260200160002060006101000a81548173ffffffffffffffffffffffffffffffffffffffff021916908373ffffffffffffffffffffffffffffffffffffffff160217905550808273ffffffffffffffffffffffffffffffffffffffff168473ffffffffffffffffffffffffffffffffffffffff167fddf252ad1be2c89b69c2b068fc378daa952ba7f163c4a11628f55a4df523b3ef60405160405180910390a46110dc8383836001611686565b505050565b6110e9610c92565b73ffffffffffffffffffffffffffffffffffffffff1661110761091a565b73ffffffffffffffffffffffffffffffffffffffff161461115d576040517f08c379a000000000000000000000000000000000000000000000000000000000815260040161115490612e78565b60405180910390fd5b565b600081600001549050919050565b6001816000016000828254019250508190555050565b61119d82826040518060200160405280600081525061168c565b5050565b60006002600083815260200190815260200160002060009054906101000a900473ffffffffffffffffffffffffffffffffffffffff169050919050565b6000600a60009054906101000a900473ffffffffffffffffffffffffffffffffffffffff16905081600a60006101000a81548173ffffffffffffffffffffffffffffffffffffffff021916908373ffffffffffffffffffffffffffffffffffffffff1602179055508173ffffffffffffffffffffffffffffffffffffffff168173ffffffffffffffffffffffffffffffffffffffff167f8be0079c531659141344cd1fd0a4f28419497f9722a3daafe3b4186f6b6457e060405160405180910390a35050565b8173ffffffffffffffffffffffffffffffffffffffff168373ffffffffffffffffffffffffffffffffffffffff1603611312576040517f08c379a000000000000000000000000000000000000000000000000000000000815260040161130990612ee4565b60405180910390fd5b80600560008573ffffffffffffffffffffffffffffffffffffffff1673ffffffffffffffffffffffffffffffffffffffff16815260200190815260200160002060008473ffffffffffffffffffffffffffffffffffffffff1673ffffffffffffffffffffffffffffffffffffffff16815260200190815260200160002060006101000a81548160ff0219169083151502179055508173ffffffffffffffffffffffffffffffffffffffff168373ffffffffffffffffffffffffffffffffffffffff167f17307eab39ab6107e8899845ad3d59bd9653f200f220920489ca2b5937696c318360405161140391906122a9565b60405180910390a3505050565b61141b848484610de8565b611427848484846116e7565b611466576040517f08c379a000000000000000000000000000000000000000000000000000000000815260040161145d90612f76565b60405180910390fd5b50505050565b606060405180602001604052806000815250905090565b6060600060016114928461186e565b01905060008167ffffffffffffffff8111156114b1576114b06125c1565b5b6040519080825280601f01601f1916602001820160405280156114e35781602001600182028036833780820191505090505b509050600082602001820190505b600115611546578080600190039150507f3031323334353637383961626364656600000000000000000000000000000000600a86061a8153600a858161153a57611539612f96565b5b049450600085036114f1575b819350505050919050565b60007f80ac58cd000000000000000000000000000000000000000000000000000000007bffffffffffffffffffffffffffffffffffffffffffffffffffffffff1916827bffffffffffffffffffffffffffffffffffffffffffffffffffffffff1916148061161c57507f5b5e139f000000000000000000000000000000000000000000000000000000007bffffffffffffffffffffffffffffffffffffffffffffffffffffffff1916827bffffffffffffffffffffffffffffffffffffffffffffffffffffffff1916145b8061162c575061162b826119c1565b5b9050919050565b60008073ffffffffffffffffffffffffffffffffffffffff16611655836111a1565b73ffffffffffffffffffffffffffffffffffffffff1614159050919050565b61168084848484611a2b565b50505050565b50505050565b6116968383611b89565b6116a360008484846116e7565b6116e2576040517f08c379a00000000000000000000000000000000000000000000000000000000081526004016116d990612f76565b60405180910390fd5b505050565b60006117088473ffffffffffffffffffffffffffffffffffffffff16611da6565b15611861578373ffffffffffffffffffffffffffffffffffffffff1663150b7a02611731610c92565b8786866040518563ffffffff1660e01b8152600401611753949392919061301a565b6020604051808303816000875af192505050801561178f57506040513d601f19601f8201168201806040525081019061178c919061307b565b60015b611811573d80600081146117bf576040519150601f19603f3d011682016040523d82523d6000602084013e6117c4565b606091505b506000815103611809576040517f08c379a000000000000000000000000000000000000000000000000000000000815260040161180090612f76565b60405180910390fd5b805181602001fd5b63150b7a0260e01b7bffffffffffffffffffffffffffffffffffffffffffffffffffffffff1916817bffffffffffffffffffffffffffffffffffffffffffffffffffffffff191614915050611866565b600190505b949350505050565b600080600090507a184f03e93ff9f4daa797ed6e38ed64bf6a1f01000000000000000083106118cc577a184f03e93ff9f4daa797ed6e38ed64bf6a1f01000000000000000083816118c2576118c1612f96565b5b0492506040810190505b6d04ee2d6d415b85acef81000000008310611909576d04ee2d6d415b85acef810000000083816118ff576118fe612f96565b5b0492506020810190505b662386f26fc10000831061193857662386f26fc10000838161192e5761192d612f96565b5b0492506010810190505b6305f5e1008310611961576305f5e100838161195757611956612f96565b5b0492506008810190505b612710831061198657612710838161197c5761197b612f96565b5b0492506004810190505b606483106119a9576064838161199f5761199e612f96565b5b0492506002810190505b600a83106119b8576001810190505b80915050919050565b60007f01ffc9a7000000000000000000000000000000000000000000000000000000007bffffffffffffffffffffffffffffffffffffffffffffffffffffffff1916827bffffffffffffffffffffffffffffffffffffffffffffffffffffffff1916149050919050565b611a3784848484611dc9565b6001811115611a7b576040517f08c379a0000000000000000000000000000000000000000000000000000000008152600401611a729061311a565b60405180910390fd5b6000829050600073ffffffffffffffffffffffffffffffffffffffff168573ffffffffffffffffffffffffffffffffffffffff1603611ac257611abd81611eef565b611b01565b8373ffffffffffffffffffffffffffffffffffffffff168573ffffffffffffffffffffffffffffffffffffffff1614611b0057611aff8582611f38565b5b5b600073ffffffffffffffffffffffffffffffffffffffff168473ffffffffffffffffffffffffffffffffffffffff1603611b4357611b3e816120a5565b611b82565b8473ffffffffffffffffffffffffffffffffffffffff168473ffffffffffffffffffffffffffffffffffffffff1614611b8157611b808482612176565b5b5b5050505050565b600073ffffffffffffffffffffffffffffffffffffffff168273ffffffffffffffffffffffffffffffffffffffff1603611bf8576040517f08c379a0000000000000000000000000000000000000000000000000000000008152600401611bef90613186565b60405180910390fd5b611c0181611633565b15611c41576040517f08c379a0000000000000000000000000000000000000000000000000000000008152600401611c38906131f2565b60405180910390fd5b611c4f600083836001611674565b611c5881611633565b15611c98576040517f08c379a0000000000000000000000000000000000000000000000000000000008152600401611c8f906131f2565b60405180910390fd5b6001600360008473ffffffffffffffffffffffffffffffffffffffff1673ffffffffffffffffffffffffffffffffffffffff16815260200190815260200160002060008282540192505081905550816002600083815260200190815260200160002060006101000a81548173ffffffffffffffffffffffffffffffffffffffff021916908373ffffffffffffffffffffffffffffffffffffffff160217905550808273ffffffffffffffffffffffffffffffffffffffff16600073ffffffffffffffffffffffffffffffffffffffff167fddf252ad1be2c89b69c2b068fc378daa952ba7f163c4a11628f55a4df523b3ef60405160405180910390a4611da2600083836001611686565b5050565b6000808273ffffffffffffffffffffffffffffffffffffffff163b119050919050565b6001811115611ee957600073ffffffffffffffffffffffffffffffffffffffff168473ffffffffffffffffffffffffffffffffffffffff1614611e5d5780600360008673ffffffffffffffffffffffffffffffffffffffff1673ffffffffffffffffffffffffffffffffffffffff1681526020019081526020016000206000828254611e559190613241565b925050819055505b600073ffffffffffffffffffffffffffffffffffffffff168373ffffffffffffffffffffffffffffffffffffffff1614611ee85780600360008573ffffffffffffffffffffffffffffffffffffffff1673ffffffffffffffffffffffffffffffffffffffff1681526020019081526020016000206000828254611ee09190613275565b925050819055505b5b50505050565b6008805490506009600083815260200190815260200160002081905550600881908060018154018082558091505060019003906000526020600020016000909190919091505550565b60006001611f458461084f565b611f4f9190613241565b9050600060076000848152602001908152602001600020549050818114612034576000600660008673ffffffffffffffffffffffffffffffffffffffff1673ffffffffffffffffffffffffffffffffffffffff168152602001908152602001600020600084815260200190815260200160002054905080600660008773ffffffffffffffffffffffffffffffffffffffff1673ffffffffffffffffffffffffffffffffffffffff168152602001908152602001600020600084815260200190815260200160002081905550816007600083815260200190815260200160002081905550505b6007600084815260200190815260200160002060009055600660008573ffffffffffffffffffffffffffffffffffffffff1673ffffffffffffffffffffffffffffffffffffffff16815260200190815260200160002060008381526020019081526020016000206000905550505050565b600060016008805490506120b99190613241565b90506000600960008481526020019081526020016000205490506000600883815481106120e9576120e8612ae9565b5b90600052602060002001549050806008838154811061210b5761210a612ae9565b5b90600052602060002001819055508160096000838152602001908152602001600020819055506009600085815260200190815260200160002060009055600880548061215a576121596132a9565b5b6001900381819060005260206000200160009055905550505050565b60006121818361084f565b905081600660008573ffffffffffffffffffffffffffffffffffffffff1673ffffffffffffffffffffffffffffffffffffffff168152602001908152602001600020600083815260200190815260200160002081905550806007600084815260200190815260200160002081905550505050565b6000604051905090565b600080fd5b600080fd5b60007fffffffff0000000000000000000000000000000000000000000000000000000082169050919050565b61223e81612209565b811461224957600080fd5b50565b60008135905061225b81612235565b92915050565b600060208284031215612277576122766121ff565b5b60006122858482850161224c565b91505092915050565b60008115159050919050565b6122a38161228e565b82525050565b60006020820190506122be600083018461229a565b92915050565b600081519050919050565b600082825260208201905092915050565b60005b838110156122fe5780820151818401526020810190506122e3565b60008484015250505050565b6000601f19601f8301169050919050565b6000612326826122c4565b61233081856122cf565b93506123408185602086016122e0565b6123498161230a565b840191505092915050565b6000602082019050818103600083015261236e818461231b565b905092915050565b6000819050919050565b61238981612376565b811461239457600080fd5b50565b6000813590506123a681612380565b92915050565b6000602082840312156123c2576123c16121ff565b5b60006123d084828501612397565b91505092915050565b600073ffffffffffffffffffffffffffffffffffffffff82169050919050565b6000612404826123d9565b9050919050565b612414816123f9565b82525050565b600060208201905061242f600083018461240b565b92915050565b61243e816123f9565b811461244957600080fd5b50565b60008135905061245b81612435565b92915050565b60008060408385031215612478576124776121ff565b5b60006124868582860161244c565b925050602061249785828601612397565b9150509250929050565b6124aa81612376565b82525050565b60006020820190506124c560008301846124a1565b92915050565b6000806000606084860312156124e4576124e36121ff565b5b60006124f28682870161244c565b93505060206125038682870161244c565b925050604061251486828701612397565b9150509250925092565b600060208284031215612534576125336121ff565b5b60006125428482850161244c565b91505092915050565b6125548161228e565b811461255f57600080fd5b50565b6000813590506125718161254b565b92915050565b6000806040838503121561258e5761258d6121ff565b5b600061259c8582860161244c565b92505060206125ad85828601612562565b9150509250929050565b600080fd5b600080fd5b7f4e487b7100000000000000000000000000000000000000000000000000000000600052604160045260246000fd5b6125f98261230a565b810181811067ffffffffffffffff82111715612618576126176125c1565b5b80604052505050565b600061262b6121f5565b905061263782826125f0565b919050565b600067ffffffffffffffff821115612657576126566125c1565b5b6126608261230a565b9050602081019050919050565b82818337600083830152505050565b600061268f61268a8461263c565b612621565b9050828152602081018484840111156126ab576126aa6125bc565b5b6126b684828561266d565b509392505050565b600082601f8301126126d3576126d26125b7565b5b81356126e384826020860161267c565b91505092915050565b60008060008060808587031215612706576127056121ff565b5b60006127148782880161244c565b94505060206127258782880161244c565b935050604061273687828801612397565b925050606085013567ffffffffffffffff81111561275757612756612204565b5b612763878288016126be565b91505092959194509250565b60008060408385031215612786576127856121ff565b5b60006127948582860161244c565b92505060206127a58582860161244c565b9150509250929050565b7f4e487b7100000000000000000000000000000000000000000000000000000000600052602260045260246000fd5b600060028204905060018216806127f657607f821691505b602082108103612809576128086127af565b5b50919050565b7f4552433732313a20617070726f76616c20746f2063757272656e74206f776e6560008201527f7200000000000000000000000000000000000000000000000000000000000000602082015250565b600061286b6021836122cf565b91506128768261280f565b604082019050919050565b6000602082019050818103600083015261289a8161285e565b9050919050565b7f4552433732313a20617070726f76652063616c6c6572206973206e6f7420746f60008201527f6b656e206f776e6572206f7220617070726f76656420666f7220616c6c000000602082015250565b60006128fd603d836122cf565b9150612908826128a1565b604082019050919050565b6000602082019050818103600083015261292c816128f0565b9050919050565b7f4552433732313a2063616c6c6572206973206e6f7420746f6b656e206f776e6560008201527f72206f7220617070726f76656400000000000000000000000000000000000000602082015250565b600061298f602d836122cf565b915061299a82612933565b604082019050919050565b600060208201905081810360008301526129be81612982565b9050919050565b7f455243373231456e756d657261626c653a206f776e657220696e646578206f7560008201527f74206f6620626f756e6473000000000000000000000000000000000000000000602082015250565b6000612a21602b836122cf565b9150612a2c826129c5565b604082019050919050565b60006020820190508181036000830152612a5081612a14565b9050919050565b7f455243373231456e756d657261626c653a20676c6f62616c20696e646578206f60008201527f7574206f6620626f756e64730000000000000000000000000000000000000000602082015250565b6000612ab3602c836122cf565b9150612abe82612a57565b604082019050919050565b60006020820190508181036000830152612ae281612aa6565b9050919050565b7f4e487b7100000000000000000000000000000000000000000000000000000000600052603260045260246000fd5b7f4552433732313a20696e76616c696420746f6b656e2049440000000000000000600082015250565b6000612b4e6018836122cf565b9150612b5982612b18565b602082019050919050565b60006020820190508181036000830152612b7d81612b41565b9050919050565b7f4552433732313a2061646472657373207a65726f206973206e6f74206120766160008201527f6c6964206f776e65720000000000000000000000000000000000000000000000602082015250565b6000612be06029836122cf565b9150612beb82612b84565b604082019050919050565b60006020820190508181036000830152612c0f81612bd3565b9050919050565b600081905092915050565b6000612c2c826122c4565b612c368185612c16565b9350612c468185602086016122e0565b80840191505092915050565b6000612c5e8285612c21565b9150612c6a8284612c21565b91508190509392505050565b7f4f776e61626c653a206e6577206f776e657220697320746865207a65726f206160008201527f6464726573730000000000000000000000000000000000000000000000000000602082015250565b6000612cd26026836122cf565b9150612cdd82612c76565b604082019050919050565b60006020820190508181036000830152612d0181612cc5565b9050919050565b7f4552433732313a207472616e736665722066726f6d20696e636f72726563742060008201527f6f776e6572000000000000000000000000000000000000000000000000000000602082015250565b6000612d646025836122cf565b9150612d6f82612d08565b604082019050919050565b60006020820190508181036000830152612d9381612d57565b9050919050565b7f4552433732313a207472616e7366657220746f20746865207a65726f2061646460008201527f7265737300000000000000000000000000000000000000000000000000000000602082015250565b6000612df66024836122cf565b9150612e0182612d9a565b604082019050919050565b60006020820190508181036000830152612e2581612de9565b9050919050565b7f4f776e61626c653a2063616c6c6572206973206e6f7420746865206f776e6572600082015250565b6000612e626020836122cf565b9150612e6d82612e2c565b602082019050919050565b60006020820190508181036000830152612e9181612e55565b9050919050565b7f4552433732313a20617070726f766520746f2063616c6c657200000000000000600082015250565b6000612ece6019836122cf565b9150612ed982612e98565b602082019050919050565b60006020820190508181036000830152612efd81612ec1565b9050919050565b7f4552433732313a207472616e7366657220746f206e6f6e20455243373231526560008201527f63656976657220696d706c656d656e7465720000000000000000000000000000602082015250565b6000612f606032836122cf565b9150612f6b82612f04565b604082019050919050565b60006020820190508181036000830152612f8f81612f53565b9050919050565b7f4e487b7100000000000000000000000000000000000000000000000000000000600052601260045260246000fd5b600081519050919050565b600082825260208201905092915050565b6000612fec82612fc5565b612ff68185612fd0565b93506130068185602086016122e0565b61300f8161230a565b840191505092915050565b600060808201905061302f600083018761240b565b61303c602083018661240b565b61304960408301856124a1565b818103606083015261305b8184612fe1565b905095945050505050565b60008151905061307581612235565b92915050565b600060208284031215613091576130906121ff565b5b600061309f84828501613066565b91505092915050565b7f455243373231456e756d657261626c653a20636f6e736563757469766520747260008201527f616e7366657273206e6f7420737570706f727465640000000000000000000000602082015250565b60006131046035836122cf565b915061310f826130a8565b604082019050919050565b60006020820190508181036000830152613133816130f7565b9050919050565b7f4552433732313a206d696e7420746f20746865207a65726f2061646472657373600082015250565b60006131706020836122cf565b915061317b8261313a565b602082019050919050565b6000602082019050818103600083015261319f81613163565b9050919050565b7f4552433732313a20746f6b656e20616c7265616479206d696e74656400000000600082015250565b60006131dc601c836122cf565b91506131e7826131a6565b602082019050919050565b6000602082019050818103600083015261320b816131cf565b9050919050565b7f4e487b7100000000000000000000000000000000000000000000000000000000600052601160045260246000fd5b600061324c82612376565b915061325783612376565b925082820390508181111561326f5761326e613212565b5b92915050565b600061328082612376565b915061328b83612376565b92508282019050808211156132a3576132a2613212565b5b92915050565b7f4e487b7100000000000000000000000000000000000000000000000000000000600052603160045260246000fdfea26469706673582212205de03a9c6f4b8c81b2a4bd82a5e4c7d5d64f0b6a7b0e5d4bc11d4148bc0da52264736f6c63430008110033",
    "linkReferences": {},
    "deployedLinkReferences": {}
}